:100000000211D70216137A0F0059220200CA7A375A
:10001000005722021614CA3B7A3700257F307EB380
:10002000005FB4040280030200C06D337A370028F9
:100030007E3413887A37002AA9C7AF740E7E700108
:10004000121558741112152E30E018A9D7AF7E344E
:10005000000A1214517E37002A1B347A37002A68AE
:100060005F80D57E270025BE24004008057E7040B5
:1000700080027C757A730027A9C7AFC202740E7E16
:1000800070011215587F032E1700287EB300277EBB
:100090007001121519D202A9D7AF7E7300270A2763
:1000A0007D322E3700287A3700287E3700259D3292
:1000B0007A3700257E730027BE704040030200306F
:1000C000DA3B227EB300110212C932020E487F7061
:1000D0007F517EC400007ED4004D7E9400E1020179
:1000E000374005E47A7BB0227A7BB00B7C227F70AC
:1000F0007F517E6F00267E9400FD0201374005E4AB
:100100007A7BB0227A7BB00B7C22540F2490D434BB
:1001100040D430F30CBEB0414007BEB05B50022467
:10012000204CCC68021BC00B84D389944CCC680B48
:10013000742012012180F5CA3B6D889F337CAE7E0E
:100140005BB00B5C7007C37D38DA3B8994B42569DA
:10015000C2F37E5BB00B5CA5F824D0BEB00A501B86
:100160007E500A20F60DAC5CA52D7CCB70034EF0C2
:100170000180DDAC5DA52D7CDB80D524CFBEB01A1F
:10018000A5E850055E00DFD2F390050CA3E4936070
:1001900011BCB078F77417934CAB30F6B34EF080C7
:1001A00080AEA3E4936010BCB078F77416937C3BE8
:1001B0007423937C2B89147CB0801374201201214A
:1001C00020F205BEC00250F31B6D29B600011201DA
:1001D0002102012C1B6E691600020B6A00BE08008A
:1001E0000078087E0400FF7E14161720F21E4CCC07
:1001F000681A7F10E47E1B804C8868070B1C04BCC7
:10020000BD78F2C2F6CA0B12030BDA0B7E0BB0609C
:10021000C0CA0B120121DA0B0B0C4CDD68EE1BD0AF
:1002200078EA80ADD2F07E101080037E10085EB0B8
:100230005F800AD2F67E100A80057E100AC2F66D33
:10024000119F117E00201B6C7E6B7030F6021A37F6
:1002500020F1051B6C7E6B6030F6041A261A2430E0
:10026000F0051B6D0B6A20A5EC3382F692F6500A5E
:100270007CEA9F229F217F127CAE4C44780F7C4504
:100280007C567C676C772E00F878EF80122F117CFB
:10029000B3337C3B9CB140047C3B0B70A5D8EE7C17
:1002A000B230E005DAB8C44C3BCA380B207E0020DF
:1002B0007E3000BE18000078C1BE1008780730F408
:1002C00004C2F480B5CA287CB2BCBD38027CBD1221
:1002D000030BDA28BC2D500A1BD0E4CA2812010AED
:1002E00080F07CB213DAB84004C4CAB8C4CA28BECD
:1002F000F08040095CDD7805A5DA0260065EF07FDB
:1003000012010ADA28A5DADA02012CBEF001680F20
:1003100030F402240220F50620F70330F601042011
:10032000F229BCBC5025CAB87CBF13B0E67420507B
:100330001174307C8A5E80F0680812034B5EA00F57
:100340008003120121DAB8BCBC78DB30F40F7430C2
:10035000120121745830F302747812012130F6052D
:10036000742D020121742B20F5F8742020F7F3225C
:100370001B6C7E6BB010F1021B6C20F60B30E70497
:10038000F404D2F27CCB800520E7057CDB0201502F
:100390005EF07F80F81B6E691600020B6A0030F079
:1003A000076D221B0A200B0D1B0A8002013BE46C27
:1003B00022BE3007500B7F1F2D312E34FFF77E39C0
:1003C000B0227CBF20E7A8742E4EF08002012112DB
:1003D00004F5403D7CBD7003047CDB12060C7C3DC3
:1003E0004C3368101B307CBE20E4091203AE70044D
:1003F0004C3378F07CBD7CD3BEA0FD481CBCAB5810
:1004000018E49CBA2CB31801E47CDB0204961204B5
:10041000F5406E7CBD0412060C7AFBA07CAE7CBD60
:10042000A2F492F0C2F44002600104240512030B0E
:100430007E30FF0B301203AECA3812010A20F004DE
:100440004CDD68031203C2DA38BC3D78E6740E1244
:10045000010A742B7EFBA030F707742D6EA0FF0BF2
:10046000A07AFBA01201217EA00A7EFBB0847AFB59
:10047000A012010A7EFBB012010A9EF800080201D8
:100480002CD2F27ED0000201EB1204F540F37CBACC
:100490002CBD0412060C7AFBA07CBA7CAE30E701BE
:1004A000E40420F4044CDD6805D2F0C2F4042CBD51
:1004B00012030B6C337EFBB0601B20E712147AFB37
:1004C000B01203AECA3812010ADA380B3080E604E3
:1004D0007AFBB01B301203AECA3812010A4CDD6839
:1004E000071203C21BD080E19EF8000930F003120E
:1004F00003C202012C7CEA7CAF10F7037ED0067C9D
:10050000FA1B6E693600020B6A200205542D2B205F
:100510004C4248232E0053584F44494355502A4ECD
:10052000464547000420800102001040D4262B33AA
:1005300033C03A247095890ECF01020202020102F3
:100540000203030404034E614E002B494E46002D66
:10055000494E46007D522D557CBE92E67CEB7CBA1E
:10056000601F0470287CB5C2E77E0400FF60067E31
:10057000140546D3227E14054F40047E14054AD349
:1005800022DA099F22CA2BCA2BC3CA09220A0A7E71
:10059000144D10AD109E083AF09E10267CB5C2E7AF
:1005A0007EA0567C9BA46E54FFFF2E54C511ACA9AF
:1005B0002D15E4A539CAB8CA1B20E70A1207A0DA2C
:1005C0001B1206EF800AF4041207A0DA1B12064F72
:1005D000DAA87CB5337CB4334E50806C4424822F2F
:1005E000111478FBDA497407BE400A40099E400A9C
:1005F000CA0201140BA0CA486C442F117F012F11AD
:100600002F112F101478EFCA48CA49227F0F20E714
:100610003ABEB007400274070A0B2D109E14000961
:100620007E19B02EB0FB501F4C116817E47A19B038
:100630001B147E19B0047A19B0B40A0BE47A19B00D
:10064000A5D9ED0BA074017A19B0225EE0BF225D3E
:1006500022680D5D0078122D220B4068099F11223F
:100660002D000B0078F90208141207D75C800B806C
:100670006808248150072CB0500A02081C2CB04096
:10068000030208197C8B5D1178267CB17CA5BE1015
:1006900080680A5D33780DA5BD80057F10020806CD
:1006A0006D0080307F017C5B7CB17CA5AD12802425
:1006B0005D337806A5BD80F080E1CA887D41AD43F9
:1006C0007CB17CA5AD122D1450020B047C5BAD23D4
:1006D0002F01DA88A42D05BE008040060B80780427
:1006E00080982F007C437C507C617C720207F0BEB6
:1006F00024FFFF6806BE04FFFF78030208141207F8
:10070000D75CB00468F57CB8A54868EF7CB8700386
:100710009F1122A5B8000302081C2E008150079CDF
:100720008038070208199C8050ED0A51C2E74D51EC
:1007300078030208067E5400807E901A6C008006C2
:100740001B9068142F11BF1040049F104CAB033056
:10075000E7EECAA86CAA80E8DA39DA587C4ABE50BB
:1007600080500A1B8068BC2F1150020B700207F0EA
:100770003F8000004120000042C80000447A000091
:10078000461C400047C35000497424004B18968013
:100790004CBEBC205A0E1BCA6753C21C749DC5AE0A
:1007A0007C7B60065407681623231207C57CB75468
:1007B00038680A7F101207C212064F7F01227CB7E9
:1007C000543803241C6CAA2E5407707E4400FF0B7F
:1007D0002A0069120002222D0092D50E104E1080C0
:1007E0007D422D445002B2D54E50806C447CB822DC
:1007F0002C4450120B1C7E40005E507FBE1800003F
:1008000078040B806816A2D57CB8137C4B7CB5921B
:10081000E77C5B227E1CFFFF229F11227E24FF804B
:1008200020D5026C456D33227D51AD037D027D21C3
:10083000AD052D12AD352D2122CAF87EF3004D7C79
:10084000BF5480B480167EB3005070307EB3004F2A
:10085000702A7E370053BE34000268030209317CDF
:10086000BF540F14681B14683B0BB16803020931B5
:100870007EB3005270067EB30051601E02093180C3
:10088000197EB3005FB4040F7EB300526003020907
:10089000317EB3005160030209317E340E3C7E2468
:1008A00000FF807D7EB3005FB404067EB30052601B
:1008B00002807E7E7300517CA75EA00F1B7068369D
:1008C0002E707F68040B7078687E2400017CBA600B
:1008D000053E241478FB7E7300676C665C754D33AF
:1008E000680A7E340E3E7E2400FF80357E340E3C46
:1008F0007E2400FF802B7E2400017CBA60053E240C
:100900001478FB7E7300686C665C754D33680A7EF4
:10091000340E3E7E2400FF80087E340E3C7E240090
:10092000FF7A1F00637E3400027A370061800780FF
:10093000001215BA800312157CDAF822CA79740EF7
:100940007E7001121558741412152E7CFB30E608C7
:1009500074147E70801215587CBF20E003020A1EBA
:100960007E1401007E040001742112128F7AB300FC
:10097000557E1F00594D237803020A056CFF807ACB
:100980007EB300561A3B7E0F00592D317D207E1B11
:10099000A00A4F2E4401007A91827A81837EEBE097
:1009A000BCEA7840047AB300567E7300561A372D9D
:1009B000317D207E1BB0704074146C77121558E4A2
:1009C0007E34FE007E24007E7A1BB075F40053DC7A
:1009D000F07E34FE077A1BB07E34000A1214BE7516
:1009E000C76080FE7E1F00597E1B70BCE7780474D0
:1009F000018001E47AB300560BF07E730055BC7F92
:100A00002803020980D2007E3700574D33680F7EDD
:100A1000370057993474146C77121558C200DA797C
:100A2000227EB3005FBEB00268207EB3004D701A14
:100A30007EB3005070147EB30052700E7EB300512E
:100A400070087E3700534D3368030215BA7EB30039
:100A50004FB4015F74047AB3005FE47AB300677A3D
:100A6000B30068740E7E700112155874127E7020E7
:100A700012155874107E7008121558740E7E70028C
:100A800012155874127E702012155874107E70085A
:100A9000121558740E7E700112155874126C77126C
:100AA000155874137E7008121558740E6C77121551
:100AB00058801074037AB3005F74FF7AB300677ACA
:100AC000B300680215C87EB3005FB404247EB3008F
:100AD0004DB4021D7EB300526003020B5F7EB30073
:100AE00050707C7EB3004F70767E3700534D336874
:100AF00002806C7E6300517C765E700F1B60682FF5
:100B00002E607F68040B6078567E2400017CB760FD
:100B1000053E241478FB7C656E60FF5E6300677A97
:100B2000630067740E12155874117E704080247E25
:100B30002400017CB760053E241478FB7C656E6060
:100B4000FF5E6300687A630068740E1215587414AF
:100B50007E7080121558740E6C771215588003023F
:100B600015BA0215C87EB3004D5480BEB08068032C
:100B7000020BF07EB300501BB168191468280BB14A
:100B8000786E7E340DE77E2400FF7A1F00637E348A
:100B9000001280547E340DF97E2400FF7A1F00631A
:100BA0007E34004380427EB3004F146819146828D5
:100BB0000BB1783C7E340DE37E2400FF7A1F006386
:100BC0007E34000480227E340E407E2400FF7A1F93
:100BD00000637E34000880107E340DC57E2400FF43
:100BE0007A1F00637E34001E7A3700618005800022
:100BF0000215BA7E370053BE37006150047A3700C1
:100C00006102157C53B2FC43B10374807E34FE074D
:100C10007E24007E7A1BB07E34FE077E24007E7E1A
:100C20001BB030E0F253DCF075F490E46C771215F1
:100C30005874017E700812155874077E703F1215A3
:100C40005874097E703F121558740B7E7007121588
:100C50005874016C7712155874027AB3005FE47A05
:100C6000B300607AB300677AB30068C2027E3401D1
:100C7000007E2400C27A1F00087AB3000C7AB30009
:100C80000D74087AB3000EA9D7AF74017AB30025AA
:100C90007EB30025700B9F117A1F00269F00020073
:100CA000EE227EB3005FB404247EB3004DB4021D77
:100CB0007EB300526003020D357EB3005070767E25
:100CC000B3004F70707E3700534D33680280667EEC
:100CD0006300517C765E700F1B60682C2E607F680D
:100CE000040B6078507E2400017CB760053E24141C
:100CF00078FB7C654E6300677A630067740E12159B
:100D00005874117E701080217E2400017CB760052C
:100D10003E241478FB7C654E6300687A6300687437
:100D20000E12155874147E7020121558740E6C77BC
:100D300012155880030215BA0215C8CAF8740E6C51
:100D400077121558741112152E7CFB30E20F7411B6
:100D50007C7F5E70FB121558E47AB300607CBF3074
:100D6000E40A74117C7F4E70801215587EB30060C7
:100D700024FD68461468480BB278477CBF30E042D7
:100D80007E08004D742012128F7E3700531212FE1F
:100D90007A3700537EB3004D546024E0680D24E0A0
:100DA000680E2440780F120FA98017121489801240
:100DB000121610800D1215BA8008120F428003120D
:100DC00010B2DAF8221E03530054004300200055ED
:100DD000005300420020005300650072006900616A
:100DE000006C00040309041201000202000040BF6D
:100DF0003402FF0001010200010902430002010068
:100E000080320904000001020201000524001001E3
:100E1000052401000104240202052406000107053F
:100E200082034000FF09040100020A0000000705D8
:100E3000810240000007050102400000000001009F
:100E40000803530054004300CA7BCA6BCA5BCA4BF9
:100E5000CA3BCA2BCA1BCA0BC0D0C083C0827EF15A
:100E6000FC740612152E7CEB740212152E7CCB74CA
:100E70000412152E7CDB7CBE30E1031216167CBEFC
:100E800030E2031210FF7CBC30E003120D3B7CBC4F
:100E900030E1031212547CBC30E2031213607CBDBB
:100EA00030E10312093C7CBE30E0031216157AF1E2
:100EB000FCD082D083D0D0DA0BDA1BDA2BDA3BDA23
:100EC0004BDA5BDA6BDA7B32CA3B7A3700257F304C
:100ED0006D337A37002980567E3700297D230B2415
:100EE0007A2700292D377D267E1B707A73002B7E92
:100EF0003700297D230B247A2700292D377D267E74
:100F00001B707A73002C7E3700297D230B247A27EF
:100F100000292D377D267E1B607A63002D7EB3006D
:100F20002B7E73002C1215037E3700270B347A3783
:100F300000277E370025BE370027389C121601DABD
:100F40003B22CAF8740E6C77121558741112152EC4
:100F500020E1537E370061BE34004028057EF0401A
:100F600080027CF77E0F00637C7F74201213B40A2A
:100F70002F7E3700619D327A3700610A157E1F008F
:100F8000632D317A1F00637E3700614D33780F7413
:100F9000117E700A121558E47AB30060800874114B
:100FA0007E7002121558DAF8227EB3004EBEB00DE4
:100FB00050507EA003A4900FBA73020FE1020FE419
:100FC000021002020FE7021002020FEA020FED0206
:100FD0000FF0020FF3020FF6020FF9020FFC020FDF
:100FE000FF020839020AC6020CA2021149020B656F
:100FF00002160A02105E020A210212160213DD0214
:10100000160D0215BA43BA8075E90053EAF875F572
:10101000287594007593007592007591007596007F
:1010200075950075B20075B10075B40075B30075A3
:10103000CA0075C90075CC0075CB0075E20075E17A
:101040000012138B1215ED1215F77E3400011214E5
:10105000D612146E7E3400011214D6D2AF227EB3A3
:10106000004DB480227EB30050701C7EB3004F70E0
:10107000167EB3005270107EB30051700A7E3700A6
:1010800053BE34000168030215BA7EB3005FB40496
:101090000A7E340E3E7E2400FF80087E340E3C7EA5
:1010A0002400FF7A1F00637E3400017A370061025A
:1010B000157C740E6C77121558741112152E30E0D1
:1010C0003D7E0F0063742012128F0A1B7E27006181
:1010D0009D217A2700617E1F00632D317A1F0063F6
:1010E0007E3700614D33780E74117E7048121558AA
:1010F000E47AB300602274117E704002155822E435
:101100006C7712155874027AB3005FE47AB300600A
:10111000C202740E7E700112155874117E7048124E
:101120001558740E7E700212155874117E70481294
:101130001558740E7E700112155874147E7090123A
:101140001558740E6C77021558CAF87EB3004D70AE
:10115000237EB30052701D7EB3005170177EB30022
:101160005070117EF3004FBEF08050087E37005360
:101170004D3368051215BA8017E47C7F1215584C60
:10118000FF68047403800274027AB3005F1215C80A
:10119000DAF8227CA67C377C2B6D007E340003AD10
:1011A000307D232E2400007A51827A41837AEB200D
:1011B0007D232E2400017A51827A41837AEB307D9F
:1011C000232E2400027A51827A41837AEBA00B0409
:1011D000BE04004040C5227584017E44041FE47AA9
:1011E00049B01B4478F97EF800687E0400FF7E1445
:1011F000166B0B0A405D44681A692000020B0E0B47
:1012000044800A7E0BB07A29B00B240B0C1B447867
:10121000F280DF02158D7EB3005FB4041D7EB30043
:101220004DB481167EB3005070107EB30052700A28
:101230007E370053BE34000168030215BA7E340EB7
:101240003C7E2400FF7A1F00637E3400017A370061
:101250006102157CCAF8740E7E7001121558741163
:1012600012152E7CFB30E50874117E704012155863
:101270007CBF30E20774116C771215587E37005D21
:101280004D3368067E37005D9934C202DAF822CA0F
:101290003B7F30CAB80BFD741612152E7AFBB0399D
:1012A000BFFFFF800C29BFFFFE12152E7A3BB00B4B
:1012B000747EFBA07CBA147AFBB04CAA78E729BFF5
:1012C000FFFF9EF80003DA3B227CAB6C556C776C19
:1012D000661BA0680D1BA0680E0BA1780D7E7040E8
:1012E00080087E504080037E60407CB51211937E62
:1012F0001400007E0400017E340040020EC87A37DC
:1013000000217E3400227E2400007E1B307E3400CB
:10131000237E2400007A1B307E3400217E240000CE
:101320007E1B307E3400247E2400007A1B307E3702
:101330000023227D230000000000000000000000C8
:10134000000000000000000000000000000000009D
:10135000000000000000007D321B347D2378D6227F
:10136000CAF8740E7E7002121558741112152E7C74
:10137000FB30E50874117E70401215587CBF30E2D6
:101380000774116C77121558DAF8225389FB538EC3
:101390007F5389FC5389F7C2B953B7FDD2A974337F
:1013A0007E34FEA07E24007E7A1BB0758C05758A83
:1013B00099D28C22CA3BCA787F30CAB8800B7EFB98
:1013C000B07E3B700B7412155829AFFFFF7CBA1426
:1013D00039BFFFFF4CAA78E61BFDDA3B227EB30043
:1013E0005FB4041B7EB3004DB401147EB300507093
:1013F0000E7EB3005270087E3700534D33680302EF
:1014000015BA0215C87EB3005FB404097EB3004D5F
:10141000BEB0A168030215BA7E1800087A1F0063E7
:101420007E3700537A37006102157C7EB3005FB4CB
:1014300004097EB3004DBEB02168030215BA7E18C0
:1014400000087A1F00637E3700537A370061021567
:10145000AC8012000000000000000000000000004E
:1014600000000000007D231B344D2278E622120C80
:101470000453B57F53B67F7E34156B12000E7E1475
:1014800016917E0400FF0200067EB3004E24DF6842
:101490000A14680A0BB1780902142B02140502140D
:1014A000ED0215BA7C7B4C7B680AD2901215E1C222
:1014B000900215D5D2901215D5C2900215E1CA79C5
:1014C0007D7380077E3403E81214517D371B744D01
:1014D0003378F1DA79227D237E341A0A7D131B14C6
:1014E0007D3178F87D121B147D2178EC227EB300CB
:1014F0005FB404097EB3004DBEB02168030215BA83
:101500000215C8CA797CF67CE71215437CBE121519
:10151000437CBF121543DA79227CA77C7B0A5A2EC2
:101520005400201213B474117E70010215587CAB64
:10153000E5FC20E7FB7CBA4480F5FCE5FC20E7FBFA
:10154000E5EC22CA797CFB7EE0807CBE5CBF121495
:10155000A41EE078F5DA79227CA77C7BE5FC20E705
:10156000FB7CB7547FF5FC7AA1EC227E1401007E4F
:101570000400017E7300550A3702001674037AB323
:10158000006074117E7040121558020F4212159DB2
:101590009F007E3416A37E2400FF0200CE121005A9
:1015A0001200C37E3400641214D680F474047AB33B
:1015B000006074117E704002155874057AB30060A3
:1015C00074117E7060021558E47AB3006074117E65
:1015D00070480215580000007E1800011B1C78FCA2
:1015E000220000007E1800041B1C78FC22D288C256
:1015F000B853B7FED2A822D28AC2BA53B7FBD2AA36
:1016000022C2907E3400640213330215BA0215BA66
:101610000215BA32322222283029007E818181814E
:1016200081817E183818181818183C7E8101061818
:101630006080FF7E81010E0E01817E060E16264619
:10164000FF0606FF8080FE0101817E3E4080FE8114
:1016500081817EFF010204081020207E81817E812D
:1016600081817E7E8181817F01027C0001001100E9
:101670000002000F000000010056000002005700A9
:10168000000004005900FF169A0002005D000000EF
:10169000004053544349535023004053544349534B
:0516A0005023003000A2
:00000001FF
