:100000000213997C4B6C55BC4528287E10107E70DD
:1000100003AC757D132E1400007A31827A21837A25
:10002000EB1074107D132E1400017A31827A218333
:10003000F080246C117E7003AC757D132E140000CB
:100040007A31827A21837AEB10E47D132E14000139
:100050007A31827A2183F02E3400027A71827A61B9
:1000600083F00B50A5BD089FE4900018F07E34008B
:10007000016C556C447E3003AC350A042D102E14EF
:1000800000007A31827A21837EEB306C227CB3309F
:10009000E70474258002740C7D032E0400187A1185
:1000A000827A0183F03E300B340B20A5BA08DE0BB8
:1000B00040A5BC03C00B50BE500840B7E42E34002E
:1000C000187A71827A6183F022222202100ECAF815
:1000D0007EF3004D7CBF5480B480167EB300507018
:1000E000307EB3004F702A7E370053BE3400026862
:1000F000030201C67CBF540F14681B14683B0BB18C
:1001000068030201C67EB3005270067EB3005160E0
:100110001E0201C680197EB3005FB4040F7EB300D7
:100120005260030201C67EB3005160030201C67E25
:100130003410027E2400FF807D7EB3005FB404068D
:100140007EB300526002807E7E7300517CA75EA069
:100150000F1B7068362E707F68040B7078687E24E1
:1001600000017CBA60053E241478FB7E7300676C46
:10017000665C754D33680A7E3410047E2400FF806F
:10018000357E3410027E2400FF802B7E2400017C0B
:10019000BA60053E241478FB7E7300686C665C755B
:1001A0004D33680A7E3410047E2400FF80087E34BC
:1001B00010027E2400FF7A1F00637E3400027A372B
:1001C0000061800780001217558003121726DAF8A5
:1001D00022CA3B7D727D63121351E47E34F94A7E5C
:1001E00024007E7A1BB074017E34F9487A1BB07407
:1001F000147E34F94B7A1BB07D167E34F9887A1B55
:10020000C07E34F9897A1BD07D171B147E34F984A3
:100210007A1B207E34F9857A1B30E47E34F9827AA9
:100220001BB074807E34F9807A1BB0D20374C07E18
:1002300034F9817A1BB0DA3B22D28200C2822202D8
:02024000175550
:100243000216827F707F517EC400007ED4004D7EF3
:100253009402590202AF4005E47A7BB0227A7BB064
:100263000B7C227F707F517E6F00267E9402750285
:1002730002AF4005E47A7BB0227A7BB00B7C225438
:100283000F2490D43440D430F30CBEB0414007BEA9
:10029300B05B500224204CCC68021BC00B84D38972
:1002A300944CCC680B742012029980F5CA3B6D887C
:1002B3009F337CAE7E5BB00B5C7007C37D38DA3B4B
:1002C3008994B42569C2F37E5BB00B5CA5F824D096
:1002D300BEB00A501B7E500A20F60DAC5CA52D7CE7
:1002E300CB70034EF00180DDAC5DA52D7CDB80D5AA
:1002F30024CFBEB01AA5E850055E00DFD2F3900606
:1003030084A3E4936011BCB078F77417934CAB30BB
:10031300F6B34EF08080AEA3E4936010BCB078F7E0
:100323007416937C3B7423937C2B89147CB08013C9
:10033300742012029920F205BEC00250F31B6D29EE
:10034300B600011202990202A41B6E691600020B89
:100353006A00BE08000078087E0400FF7E1417863A
:1003630020F21E4CCC681A7F10E47E1B804C8868F8
:10037300070B1C04BCBD78F2C2F6CA0B120483DA65
:100383000B7E0BB060C0CA0B120299DA0B0B0C4C3C
:10039300DD68EE1BD078EA80ADD2F07E10108003CA
:1003A3007E10085EB05F800AD2F67E100A80057E5A
:1003B300100AC2F66D119F117E00201B6C7E6B70BC
:1003C30030F6021A3720F1051B6C7E6B6030F604A1
:1003D3001A261A2430F0051B6D0B6A20A5EC338214
:1003E300F692F6500A7CEA9F229F217F127CAE4C44
:1003F30044780F7C457C567C676C772E00F878EF49
:1004030080122F117CB3337C3B9CB140047C3B0BAB
:1004130070A5D8EE7CB230E005DAB8C44C3BCA38DC
:100423000B207E00207E3000BE18000078C1BE1075
:1004330008780730F404C2F480B5CA287CB2BCBD86
:1004430038027CBD120483DA28BC2D500A1BD0E489
:10045300CA2812028280F07CB213DAB84004C4CAFC
:10046300B8C4CA28BEF08040095CDD7805A5DA026D
:1004730060065EF07F120282DA28A5DADA0202A4AD
:10048300BEF001680F30F402240220F50620F703C2
:1004930030F6010420F229BCBC5025CAB87CBF1336
:1004A300B0E67420501174307C8A5E80F0680812C4
:1004B30004C35EA00F8003120299DAB8BCBC78DBD8
:1004C30030F40F7430120299745830F302747812B6
:1004D300029930F605742D020299742B20F5F874F5
:1004E3002020F7F3221B6C7E6BB010F1021B6C20F3
:1004F300F60B30E704F404D2F27CCB800520E70549
:100503007CDB0202C85EF07F80F81B6E6916000276
:100513000B6A0030F0076D221B0A200B0D1B0A80AB
:100523000202B3E46C22BE3007500B7F1F2D312E25
:1005330034FFF77E39B0227CBF20E7A8742E4EF03B
:100543008002029912066D403D7CBD7003047CDB82
:100553001207847C3D4C3368101B307CBE20E409B9
:1005630012052670044C3378F07CBD7CD3BEA0FD0D
:10057300481CBCAB5818E49CBA2CB31801E47CDBD0
:1005830002060E12066D406E7CBD041207847AFBD0
:10059300A07CAE7CBDA2F492F0C2F44002600104E0
:1005A30024051204837E30FF0B30120526CA38124D
:1005B300028220F0044CDD680312053ADA38BC3DB0
:1005C30078E6740E120282742B7EFBA030F7077458
:1005D3002D6EA0FF0BA07AFBA01202997EA00A7ECB
:1005E300FBB0847AFBA01202827EFBB01202829ED1
:1005F300F800080202A4D2F27ED0000203631206BE
:100603006D40F37CBA2CBD041207847AFBA07CBA3C
:100613007CAE30E701E40420F4044CDD6805D2F03D
:10062300C2F4042CBD1204836C337EFBB0601B2028
:10063300E712147AFBB0120526CA38120282DA389E
:100643000B3080E6047AFBB01B30120526CA381241
:1006530002824CDD680712053A1BD080E19EF80048
:100663000930F00312053A0202A47CEA7CAF10F7CA
:10067300037ED0067CFA1B6E693600020B6A2002E9
:1006830006CC2D2B204C4248232E0053584F44496F
:100693004355502A4E46454700042080010200106E
:1006A300404C9EA3ABAB38B29CE80D0186470303D5
:1006B30003030303030304050605054E614E002BE4
:1006C300494E46002D494E46007D522D557CBE9223
:1006D300E67CEB7CBA601F0470287CB5C2E77E041D
:1006E30000FF60067E1406BED3227E1406C74004B4
:1006F3007E1406C2D322DA099F22CA2BCA2BC3CA8D
:1007030009220A0A7E144D10AD109E083AF09E107D
:10071300267CB5C2E77EA0567C9BA46E54FFFF2EB9
:1007230054C511ACA92D15E4A539CAB8CA1B20E7D5
:100733000A120918DA1B120867800AF4041209184E
:10074300DA1B1207C7DAA87CB5337CB4334E50806A
:100753006C4424822F111478FBDA497407BE400AD3
:1007630040099E400ACA0201140BA0CA486C442FD8
:10077300117F012F112F112F101478EFCA48CA4986
:10078300227F0F20E73ABEB007400274070A0B2D01
:10079300109E1400097E19B02EB0FB501F4C116837
:1007A30017E47A19B01B147E19B0047A19B0B40A8D
:1007B3000BE47A19B0A5D9ED0BA074017A19B02214
:1007C3005EE0BF225D22680D5D0078122D220B4092
:1007D30068099F11222D000B0078F902098C120978
:1007E3004F5C800B806808248150072CB0500A02AC
:1007F30009942CB040030209917C8B5D1178267C0F
:10080300B17CA5BE1080680A5D33780DA5BD800557
:100813007F1002097E6D0080307F017C5B7CB17CA0
:10082300A5AD1280245D337806A5BD80F080E1CAB2
:10083300887D41AD437CB17CA5AD122D1450020BD4
:10084300047C5BAD232F01DA88A42D05BE00804014
:10085300060B80780480982F007C437C507C617C5D
:1008630072020968BE24FFFF6806BE04FFFF780317
:1008730002098C12094F5CB00468F57CB8A548687E
:10088300EF7CB870039F1122A5B800030209942ED0
:10089300008150079C8038070209919C8050ED0A23
:1008A30051C2E74D51780302097E7E5400807E9049
:1008B3001A6C0080061B9068142F11BF1040049F10
:1008C300104CAB0330E7EECAA86CAA80E8DA39DA39
:1008D300587C4ABE5080500A1B8068BC2F115002BE
:1008E3000B700209683F8000004120000042C800ED
:1008F30000447A0000461C400047C350004974245A
:10090300004B1896804CBEBC205A0E1BCA6753C2BC
:100913001C749DC5AE7C7B600654076816232312A6
:10092300093D7CB75438680A7F1012093A1207C789
:100933007F01227CB7543803241C6CAA2E5408E888
:100943007E4400FF0B2A0069120002222D0092D57B
:100953000E104E10807D422D445002B2D54E508071
:100963006C447CB8222C4450120B1C7E40005E5019
:100973007FBE18000078040B806816A2D57CB813DC
:100983007C4B7CB592E77C5B227E1CFFFF229F1190
:10099300227E24FF8020D5026C456D33227D51AD2C
:1009A300037D027D21AD052D12AD352D2122CA799E
:1009B300740E7E70011216F074141216DB7CFB3079
:1009C300E60874147E70801216F07CBF20E00302E8
:1009D3000A937E1401DA7E040001742112148E7AC4
:1009E300B300557E1F00594D237803020A7A6CFF2A
:1009F300807A7EB300561A3B7E0F00592D317D203D
:100A03007E1BA00A4F2E4401DA7A91827A81837E7B
:100A1300EBE0BCEA7840047AB300567E7300561AC2
:100A2300372D317D207E1BB0704074146C77121605
:100A3300F0E47E34FE007E24007E7A1BB075F40061
:100A430053DCF07E34FE077A1BB07E34000A1216A4
:100A53006A75C76080FE7E1F00597E1B70BCE778F5
:100A63000474018001E47AB300560BF07E730055E1
:100A7300BC7F28030209F5D2007E3700574D336847
:100A83000F7E370057993474146C771216F0C20036
:100A9300DA7922CA3B7A3700257F307EB3005FB410
:100AA30004028003020B406D337A3700287E34132F
:100AB300887A37002AA9C7AF740E7E70011216F028
:100AC30074111216DB30E018A9D7AF7E34000A1276
:100AD30016177E37002A1B347A37002A685F80D5C1
:100AE3007E270025BE24004008057E704080027CDE
:100AF300757A730027A9C7AFC202740E7E70011204
:100B030016F07F032E1700287EB300277E70011294
:100B130016C6D202A9D7AF7E7300270A277D322ECD
:100B23003700287A3700287E3700259D327A370030
:100B3300257E730027BE70404003020AB0DA3B22D1
:100B43007EB3005FBEB00268207EB3004D701A7E94
:100B5300B3005070147EB30052700E7EB300517018
:100B6300087E3700534D3368030217557EB3004F99
:100B7300B4015F74047AB3005FE47AB300677AB3B5
:100B83000068740E7E70011216F074127E702012CB
:100B930016F074107E70081216F0740E7E70021236
:100BA30016F074127E70201216F074107E70081204
:100BB30016F0740E7E70011216F074126C77121612
:100BC300F074137E70081216F0740E6C771216F020
:100BD300801074037AB3005F74FF7AB300677AB34B
:100BE3000068021763E47E34FEB17E24007E7A1B24
:100BF300B07E14FEC47E04007E7A0BB07E14FEC564
:100C03007A0BB07E14FEC67A0BB07E14FED07A0B3C
:100C1300B07E14FED17A0BB074187E14FEDE7A0B0C
:100C2300B0E47E14FED27A0BB074317E14FED37A14
:100C33000BB074687E14FEC87A0BB0E47E14FED544
:100C43007A0BB07E14FED67A0BB074017E14FECC00
:100C53007A0BB0E47E14FECD7A0BB07E14FEB27A2A
:100C63000BB074017A1BB05391FC43920374807EE2
:100C730034FEDD7A1BB074817E34FEC07A1BB074FF
:100C8300017E34FEC77A1BB0227EB3005FB4042416
:100C93007EB3004DB4021D7EB300526003020D25E6
:100CA3007EB30050707C7EB3004F70767E37005366
:100CB3004D336802806C7E6300517C765E700F1B3F
:100CC30060682F2E607F68040B6078567E240001D5
:100CD3007CB760053E241478FB7C656E60FF5E6321
:100CE30000677A630067740E1216F074117E704009
:100CF30080247E2400017CB760053E241478FB7CAD
:100D0300656E60FF5E6300687A630068740E121696
:100D1300F074147E70801216F0740E6C771216F055
:100D230080030217550217637EB3004D5480BEB093
:100D3300806803020DB67EB300501BB168191468B6
:100D4300280BB1786E7E340FAD7E2400FF7A1F002E
:100D5300637E34001280547E340FBF7E2400FF7AFA
:100D63001F00637E34004380427EB3004F14681932
:100D73001468280BB1783C7E340FA97E2400FF7AD7
:100D83001F00637E34000480227E3410067E24001C
:100D9300FF7A1F00637E34000880107E340F8B7E41
:100DA3002400FF7A1F00637E34001E7A37006180BF
:100DB3000580000217557E370053BE37006150048B
:100DC3007A37006102172653B2FC43B10374807E65
:100DD30034FE077E24007E7A1BB07E34FE077E2419
:100DE300007E7E1BB030E0F253DCF075F490E46CCF
:100DF300771216F074017E70081216F074077E7075
:100E03003F1216F074097E703F1216F0740B7E7059
:100E1300071216F074016C771216F074027AB3009D
:100E23005FE47AB300607AB300677AB30068C20202
:100E33007E3401007E2400C27A1F00087AB3000CBE
:100E43007AB3000D74087AB3000EA9D7AF74017A90
:100E5300B300257EB30025700B9F117A1F00269FD8
:100E630000020266227EB3005FB404247EB3004D09
:100E7300B4021D7EB300526003020EFB7EB300502A
:100E830070767EB3004F70707E3700534D33680227
:100E930080667E6300517C765E700F1B60682C2E2B
:100EA300607F68040B6078507E2400017CB7600586
:100EB3003E241478FB7C654E6300677A6300677495
:100EC3000E1216F074117E701080217E2400017CB6
:100ED300B760053E241478FB7C654E6300687A6333
:100EE3000068740E1216F074147E70201216F074DB
:100EF3000E6C771216F08003021755021763CAF8B7
:100F0300740E6C771216F074111216DB7CFB30E250
:100F13000F74117C7F5E70FB1216F0E47AB30060ED
:100F23007CBF30E40A74117C7F4E70801216F07E11
:100F3300B3006024FD68461468480BB278477CBF51
:100F430030E0427E08004D742012148E7E37005329
:100F53001214C87A3700537EB3004D546024E068FE
:100F63000D24E0680E2440780F12116D80171216BD
:100F73004F8012121783800D121755800812110625
:100F83008003121270DAF8221E0353005400430048
:100F930020005500530042002000530065007200FA
:100FA300690061006C0004030904120100020200DD
:100FB3000040BF3402FF00010102000109024300A7
:100FC300020100803209040000010202010005242D
:100FD3000010010524010001042402020524060077
:100FE30001070582034000FF09040100020A000013
:100FF30000070581024000000705010240000000D0
:101003000001000803530054004300CA7BCA6BCAA3
:101013005BCA4BCA3BCA2BCA1BCA0BC0D0C083C016
:10102300827EF1FC74061216DB7CEB74021216DB73
:101033007CCB74041216DB7CDB7CBE30E103120034
:10104300CA7CBE30E2031212BD7CBC30E003120F37
:10105300017CBC30E1031214537CBC30E203121553
:101063002D7CBD30E1031209B17CBE30E0031200D8
:10107300C97AF1FCD082D083D0D0DA0BDA1BDA2B19
:10108300DA3BDA4BDA5BDA6BDA7B322003FD7EB3D1
:10109300000F7E34000160053E341478FB6E34FF8C
:1010A300FF1214FD7EB300101200037E3400187E7D
:1010B3002400C27EB300111201D12003FD7E34004F
:1010C300641216997EB30010047AB300107E730085
:1010D30010BE7008282C74017AB300107EB3000F81
:1010E300047AB3000F7E73000FBE70104014E47ACD
:1010F300B3000F7EB30011700474018001E47AB36E
:10110300001122CAF8740E6C771216F074111216BD
:10111300DB20E1537E370061BE34004028057EF0BA
:101123004080027CF77E0F00637C7F742012155889
:101133000A2F7E3700619D327A3700610A157E1FC0
:1011430000632D317A1F00637E3700614D33780FC2
:1011530074117E700A1216F0E47AB300608008748A
:10116300117E70021216F0DAF8227EB3004EBEB082
:101173000D50507EA003A490117E730211A502119D
:10118300A80211C60211AB0211C60211AE0211B1BF
:101193000211B40211B70211BA0211BD0211C00249
:1011A30011C30200CE020C8C020E68021307020D5B
:1011B3002B02023F0211C9020B430213DA0215810B
:1011C3000217800217557EB3004DB480227EB30010
:1011D30050701C7EB3004F70167EB3005270107EA9
:1011E300B30051700A7E370053BE34000168030216
:1011F30017557EB3005FB4040A7E3410047E2400C6
:10120300FF80087E3410027E2400FF7A1F00637E75
:101213003400017A37006102172643BA8075E9006A
:1012230053EAF875F5287594007593007592007567
:10123300910075960075950075B20075B10075B48F
:101243000075B30075CA0075C90075CC0075CB0075
:1012530075E20075E1001214187E3400011216992C
:101263001216347E340001121699D2AF22740E6C1A
:10127300771216F074111216DB30E03D7E0F006317
:10128300742012148E0A1B7E2700619D217A270089
:10129300617E1F00632D317A1F00637E3700614D2D
:1012A30033780E74117E70481216F0E47AB300603E
:1012B3002274117E70400216F022E46C771216F04D
:1012C30074027AB3005FE47AB30060C202740E7EE4
:1012D30070011216F074117E70481216F0740E7EAF
:1012E30070021216F074117E70481216F0740E7E9E
:1012F30070011216F074147E70901216F0740E6C56
:10130300770216F0CAF87EB3004D70237EB3005205
:10131300701D7EB3005170177EB3005070117EF3C1
:10132300004FBEF08050087E3700534D33680512DE
:1013330017558017E47C7F1216F04CFF6804740382
:10134300800274027AB3005F121763DAF8227C7B9F
:10135300A5BF012274047E34FECC7E24007E7A1B5A
:10136300B074027E34FEB17A1BB0740D7E34F94939
:101373007A1BB0C2902274017E34FECC7E24007EA0
:101383007A1BB07E34FEB17A1BB0740D7E34F949FA
:101393007A1BB0C291227584017E44041FE47A490A
:1013A300B01B4478F97EF80068C2037E0400FF7E18
:1013B3001417DA0B0A405D44681A692000020B0E09
:1013C3000B44800A7E0BB07A29B00B240B0C1B4410
:1013D30078F280DF0217377EB3005FB4041D7EB35B
:1013E300004DB481167EB3005070107EB30052706E
:1013F3000A7E370053BE34000168030217557E345A
:1014030010027E2400FF7A1F00637E3400017A37C6
:1014130000610217267580FF759400759300E47EC2
:1014230034FE107E24007E7A1BB07E34FE407A1B8D
:10143300B074FF7E34FE187A1BB07E34FE207A1B14
:10144300B07E34FE287A1BB07E34FE307A1BB02285
:10145300CAF8740E7E70011216F074111216DB7C3A
:10146300FB30E50874117E70401216F07CBF30E249
:101473000774116C771216F07E37005D4D336806E2
:101483007E37005D9934C202DAF822CA3B7F30CA44
:10149300B80BFD74161216DB7AFBB039BFFFFF8061
:1014A3000C29BFFFFE1216DB7A3BB00B747EFBA048
:1014B3007CBA147AFBB04CAA78E729BFFFFF9EF8E9
:1014C3000003DA3B227A3700217E3400227E240097
:1014D300007E1B307E3400237E2400007A1B307E86
:1014E3003400217E2400007E1B307E3400247E24C1
:1014F30000007A1B307E37002322CAD8CA797D7355
:101503007ED00F7CBD7D3760051E341478FB5E34BE
:1015130000012E34FFFF92801202391BD0BED0008F
:1015230058E1121770DA79DAD822CAF8740E7E708D
:10153300021216F074111216DB7CFB30E5087411ED
:101543007E70401216F07CBF30E20774116C771284
:1015530016F0DAF822CA3BCA787F30CAB8800B7E0D
:10156300FBB07E3B700B741216F029AFFFFF7CBA01
:101573001439BFFFFF4CAA78E61BFDDA3B227EB38A
:10158300005FB4041B7EB3004DB401147EB300505E
:10159300700E7EB3005270087E3700534D336803DC
:1015A3000217550217637EB3005FB404097EB300CC
:1015B3004DBEB0A168030217557E1800087A1F00BC
:1015C300637E3700537A3700610217267EB3005FCC
:1015D300B404097EB3004DBEB02168030217557EE3
:1015E3001800087A1F00637E3700537A37006102C0
:1015F30017475393F8439407C280C281C282120BE8
:10160300E8E47AB3000F74017AB30010E47AB3000C
:1016130011C203228012000000000000000000003D
:1016230000000000000000007D231B344D2278E6FB
:1016330022120DCA53B57F53B67F7E341715121786
:101643007B7E14180E7E0400FF0217767EB3004ED5
:1016530024DF680A14680A0BB178090215CF021552
:10166300A90216B0021755CA797D7380077E340329
:10167300E81216177D371B744D3378F1DA7922CAD5
:10168300B8CA1BE47E34F9827E24007E7A1BB0C282
:1016930003DA1BDAB8327D237E341A0A7D131B1456
:1016A3007D3178F87D121B147D2178EC227EB30006
:1016B3005FB404097EB3004DBEB021680302175521
:1016C3000217637CA77C7B0A5A2E540020121558FC
:1016D30074117E70010216F07CABE5FC20E7FB7C05
:1016E300BA4480F5FCE5FC20E7FBE5EC227CA77C13
:1016F3007BE5FC20E7FB7CB7547FF5FC7AA1EC2269
:1017030012121D1215F512108E7E34000112169955
:1017130080F47E1401DA7E0400017E7300550A37DB
:10172300020A9674037AB3006074117E7040121635
:10173300F00211061217039F007E3418207E240046
:10174300FF02024674047AB3006074117E70400293
:1017530016F074057AB3006074117E70600216F09F
:10176300E47AB3006074117E70480216F0D28100EF
:10177300C281227A0F0059227A3700572202175565
:10178300021755283029007E8181818181817E184D
:101793003818181818183C7E810106186080FF7EDF
:1017A30081010E0E01817E060E162646FF0606FFF8
:1017B3008080FE0101817E3E4080FE8181817EFF2B
:1017C300010204081020207E81817E8181817E7E3A
:1017D3008181817F01027C00010012000001000F62
:1017E30000000100100100010011000001001300BE
:1017F30000010056000002005700000004005900D9
:10180300FF18170002005D000000004053544349D5
:0F18130053502300405354434953502300300097
:00000001FF
