:10000000021110CA3B7A3700257F307EB3005FB4FF
:10001000040280030200AD6D337A3700287E34136A
:10002000887A37002AA9C7AF740E7E70011213A612
:10003000741112139130E018A9D7AF7E34000A1260
:1000400012FF7E37002A1B347A37002A685F80D57A
:100050007E270025BE24004008057E704080027C7B
:10006000757A730027A9C7AFC202740E7E700112A1
:1000700013A67F032E1700287EB300277E7001127F
:10008000137CD202A9D7AF7E7300270A277D322EB8
:100090003700287A3700287E3700259D327A3700CE
:1000A000257E730027BE7040400302001DDA3B220C
:1000B000120C0453B57F53B67F7E3413B912141E4D
:1000C0007E14144D7E0400FF021419020E487F7046
:1000D0007F517EC400007ED4004D7E9400E1020179
:1000E000374005E47A7BB0227A7BB00B7C227F70AC
:1000F0007F517E6F00267E9400FD0201374005E4AB
:100100007A7BB0227A7BB00B7C22540F2490D434BB
:1001100040D430F30CBEB0414007BEB05B50022467
:10012000204CCC68021BC00B84D389944CCC680B48
:10013000742012012180F5CA3B6D889F337CAE7E0E
:100140005BB00B5C7007C37D38DA3B8994B42569DA
:10015000C2F37E5BB00B5CA5F824D0BEB00A501B86
:100160007E500A20F60DAC5CA52D7CCB70034EF0C2
:100170000180DDAC5DA52D7CDB80D524CFBEB01A1F
:10018000A5E850055E00DFD2F390050CA3E4936070
:1001900011BCB078F77417934CAB30F6B34EF080C7
:1001A00080AEA3E4936010BCB078F77416937C3BE8
:1001B0007423937C2B89147CB0801374201201214A
:1001C00020F205BEC00250F31B6D29B600011201DA
:1001D0002102012C1B6E691600020B6A00BE08008A
:1001E0000078087E0400FF7E14142E20F21E4CCCF2
:1001F000681A7F10E47E1B804C8868070B1C04BCC7
:10020000BD78F2C2F6CA0B12030BDA0B7E0BB0609C
:10021000C0CA0B120121DA0B0B0C4CDD68EE1BD0AF
:1002200078EA80ADD2F07E101080037E10085EB0B8
:100230005F800AD2F67E100A80057E100AC2F66D33
:10024000119F117E00201B6C7E6B7030F6021A37F6
:1002500020F1051B6C7E6B6030F6041A261A2430E0
:10026000F0051B6D0B6A20A5EC3382F692F6500A5E
:100270007CEA9F229F217F127CAE4C44780F7C4504
:100280007C567C676C772E00F878EF80122F117CFB
:10029000B3337C3B9CB140047C3B0B70A5D8EE7C17
:1002A000B230E005DAB8C44C3BCA380B207E0020DF
:1002B0007E3000BE18000078C1BE1008780730F408
:1002C00004C2F480B5CA287CB2BCBD38027CBD1221
:1002D000030BDA28BC2D500A1BD0E4CA2812010AED
:1002E00080F07CB213DAB84004C4CAB8C4CA28BECD
:1002F000F08040095CDD7805A5DA0260065EF07FDB
:1003000012010ADA28A5DADA02012CBEF001680F20
:1003100030F402240220F50620F70330F601042011
:10032000F229BCBC5025CAB87CBF13B0E67420507B
:100330001174307C8A5E80F0680812034B5EA00F57
:100340008003120121DAB8BCBC78DB30F40F7430C2
:10035000120121745830F302747812012130F6052D
:10036000742D020121742B20F5F8742020F7F3225C
:100370001B6C7E6BB010F1021B6C20F60B30E70497
:10038000F404D2F27CCB800520E7057CDB0201502F
:100390005EF07F80F81B6E691600020B6A0030F079
:1003A000076D221B0A200B0D1B0A8002013BE46C27
:1003B00022BE3007500B7F1F2D312E34FFF77E39C0
:1003C000B0227CBF20E7A8742E4EF08002012112DB
:1003D00004F5403D7CBD7003047CDB12060C7C3DC3
:1003E0004C3368101B307CBE20E4091203AE70044D
:1003F0004C3378F07CBD7CD3BEA0FD481CBCAB5810
:1004000018E49CBA2CB31801E47CDB0204961204B5
:10041000F5406E7CBD0412060C7AFBA07CAE7CBD60
:10042000A2F492F0C2F44002600104240512030B0E
:100430007E30FF0B301203AECA3812010A20F004DE
:100440004CDD68031203C2DA38BC3D78E6740E1244
:10045000010A742B7EFBA030F707742D6EA0FF0BF2
:10046000A07AFBA01201217EA00A7EFBB0847AFB59
:10047000A012010A7EFBB012010A9EF800080201D8
:100480002CD2F27ED0000201EB1204F540F37CBACC
:100490002CBD0412060C7AFBA07CBA7CAE30E701BE
:1004A000E40420F4044CDD6805D2F0C2F4042CBD51
:1004B00012030B6C337EFBB0601B20E712147AFB37
:1004C000B01203AECA3812010ADA380B3080E604E3
:1004D0007AFBB01B301203AECA3812010A4CDD6839
:1004E000071203C21BD080E19EF8000930F003120E
:1004F00003C202012C7CEA7CAF10F7037ED0067C9D
:10050000FA1B6E693600020B6A200205542D2B205F
:100510004C4248232E0053584F44494355502A4ECD
:10052000464547000420800102001040D4262B33AA
:1005300033C03A247095890ECF01020202020102F3
:100540000203030404034E614E002B494E46002D66
:10055000494E46007D522D557CBE92E67CEB7CBA1E
:10056000601F0470287CB5C2E77E0400FF60067E31
:10057000140546D3227E14054F40047E14054AD349
:1005800022DA099F22CA2BCA2BC3CA09220A0A7E71
:10059000144D10AD109E083AF09E10267CB5C2E7AF
:1005A0007EA0567C9BA46E54FFFF2E54C511ACA9AF
:1005B0002D15E4A539CAB8CA1B20E70A1207A0DA2C
:1005C0001B1206EF800AF4041207A0DA1B12064F72
:1005D000DAA87CB5337CB4334E50806C4424822F2F
:1005E000111478FBDA497407BE400A40099E400A9C
:1005F000CA0201140BA0CA486C442F117F012F11AD
:100600002F112F101478EFCA48CA49227F0F20E714
:100610003ABEB007400274070A0B2D109E14000961
:100620007E19B02EB0FB501F4C116817E47A19B038
:100630001B147E19B0047A19B0B40A0BE47A19B00D
:10064000A5D9ED0BA074017A19B0225EE0BF225D3E
:1006500022680D5D0078122D220B4068099F11223F
:100660002D000B0078F90208141207D75C800B806C
:100670006808248150072CB0500A02081C2CB04096
:10068000030208197C8B5D1178267CB17CA5BE1015
:1006900080680A5D33780DA5BD80057F10020806CD
:1006A0006D0080307F017C5B7CB17CA5AD12802425
:1006B0005D337806A5BD80F080E1CA887D41AD43F9
:1006C0007CB17CA5AD122D1450020B047C5BAD23D4
:1006D0002F01DA88A42D05BE008040060B80780427
:1006E00080982F007C437C507C617C720207F0BEB6
:1006F00024FFFF6806BE04FFFF78030208141207F8
:10070000D75CB00468F57CB8A54868EF7CB8700386
:100710009F1122A5B8000302081C2E008150079CDF
:100720008038070208199C8050ED0A51C2E74D51EC
:1007300078030208067E5400807E901A6C008006C2
:100740001B9068142F11BF1040049F104CAB033056
:10075000E7EECAA86CAA80E8DA39DA587C4ABE50BB
:1007600080500A1B8068BC2F1150020B700207F0EA
:100770003F8000004120000042C80000447A000091
:10078000461C400047C35000497424004B18968013
:100790004CBEBC205A0E1BCA6753C21C749DC5AE0A
:1007A0007C7B60065407681623231207C57CB75468
:1007B00038680A7F101207C212064F7F01227CB7E9
:1007C000543803241C6CAA2E5407707E4400FF0B7F
:1007D0002A0069120002222D0092D50E104E1080C0
:1007E0007D422D445002B2D54E50806C447CB822DC
:1007F0002C4450120B1C7E40005E507FBE1800003F
:1008000078040B806816A2D57CB8137C4B7CB5921B
:10081000E77C5B227E1CFFFF229F11227E24FF804B
:1008200020D5026C456D33227D51AD037D027D21C3
:10083000AD052D12AD352D2122CAF87EF3004D7C79
:10084000BF5480B480167EB3005070307EB3004F2A
:10085000702A7E370053BE34000268030209317CDF
:10086000BF540F14681B14683B0BB16803020931B5
:100870007EB3005270067EB30051601E02093180C3
:10088000197EB3005FB4040F7EB300526003020907
:10089000317EB3005160030209317E340E3C7E2468
:1008A00000FF807D7EB3005FB404067EB30052601B
:1008B00002807E7E7300517CA75EA00F1B7068369D
:1008C0002E707F68040B7078687E2400017CBA600B
:1008D000053E241478FB7E7300676C665C754D33AF
:1008E000680A7E340E3E7E2400FF80357E340E3C46
:1008F0007E2400FF802B7E2400017CBA60053E240C
:100900001478FB7E7300686C665C754D33680A7EF4
:10091000340E3E7E2400FF80087E340E3C7E240090
:10092000FF7A1F00637E3400027A370061800780FF
:10093000001213F980031213CADAF822CA79740E6E
:100940007E70011213A674141213917CFB30E6081A
:1009500074147E70801213A67CBF20E003020A1E6E
:100960007E1400407E04000174211211C87AB30085
:10097000557E1F00594D237803020A056CFF807ACB
:100980007EB300561A3B7E0F00592D317D207E1B11
:10099000A00A4F2E4400407A91827A81837EEBE058
:1009A000BCEA7840047AB300567E7300561A372D9D
:1009B000317D207E1BB0704074146C771213A6E456
:1009C0007E34FE007E24007E7A1BB075F40053DC7A
:1009D000F07E34FE077A1BB07E34000A121337759E
:1009E000C76080FE7E1F00597E1B70BCE7780474D0
:1009F000018001E47AB300560BF07E730055BC7F92
:100A00002803020980D2007E3700574D33680F7EDD
:100A1000370057993474146C771213A6C200DA7930
:100A2000227EB3005FBEB00268207EB3004D701A14
:100A30007EB3005070147EB30052700E7EB300512E
:100A400070087E3700534D3368030213F97EB300FC
:100A50004FB4015F74047AB3005FE47AB300677A3D
:100A6000B30068740E7E70011213A674127E70209B
:100A70001213A674107E70081213A6740E7E7002F4
:100A80001213A674127E70201213A674107E7008C2
:100A90001213A6740E7E70011213A674126C7712D4
:100AA00013A674137E70081213A6740E6C771213BB
:100AB000A6801074037AB3005F74FF7AB300677A7C
:100AC000B300680214077EB3005FB404247EB30051
:100AD0004DB4021D7EB300526003020B5F7EB30073
:100AE00050707C7EB3004F70767E3700534D336874
:100AF00002806C7E6300517C765E700F1B60682FF5
:100B00002E607F68040B6078567E2400017CB760FD
:100B1000053E241478FB7C656E60FF5E6300677A97
:100B2000630067740E1213A674117E704080247ED9
:100B30002400017CB760053E241478FB7C656E6060
:100B4000FF5E6300687A630068740E1213A6741463
:100B50007E70801213A6740E6C771213A6800302A7
:100B600013F90214077EB3004D5480BEB0806803B1
:100B7000020BF07EB300501BB168191468280BB14A
:100B8000786E7E340DE77E2400FF7A1F00637E348A
:100B9000001280547E340DF97E2400FF7A1F00631A
:100BA0007E34004380427EB3004F146819146828D5
:100BB0000BB1783C7E340DE37E2400FF7A1F006386
:100BC0007E34000480227E340E407E2400FF7A1F93
:100BD00000637E34000880107E340DC57E2400FF43
:100BE0007A1F00637E34001E7A3700618005800022
:100BF0000213F97E370053BE37006150047A370084
:100C0000610213CA53B2FC43B10374807E34FE0701
:100C10007E24007E7A1BB07E34FE077E24007E7E1A
:100C20001BB030E0F253DCF075F490E46C771213F3
:100C3000A674017E70081213A674077E703F12130B
:100C4000A674097E703F1213A6740B7E70071213F0
:100C5000A674016C771213A674027AB3005FE47A6B
:100C6000B300607AB300677AB30068C2027E3401D1
:100C7000007E2400C27A1F00087AB3000C7AB30009
:100C80000D74087AB3000EA9D7AF74017AB30025AA
:100C90007EB30025700B9F117A1F00269F00020073
:100CA000EE227EB3005FB404247EB3004DB4021D77
:100CB0007EB300526003020D357EB3005070767E25
:100CC000B3004F70707E3700534D33680280667EEC
:100CD0006300517C765E700F1B60682C2E607F680D
:100CE000040B6078507E2400017CB760053E24141C
:100CF00078FB7C654E6300677A630067740E12139D
:100D0000A674117E701080217E2400017CB76005DE
:100D10003E241478FB7C654E6300687A6300687437
:100D20000E1213A674147E70201213A6740E6C7724
:100D30001213A680030213F9021407CAF8740E6C8A
:100D4000771213A674111213917CFB30E20F741109
:100D50007C7F5E70FB1213A6E47AB300607CBF3028
:100D6000E40A74117C7F4E70801213A67EB300607B
:100D700024FD68461468480BB278477CBF30E042D7
:100D80007E08004D74201211C87E370053121202E3
:100D90007A3700537EB3004D546024E0680D24E0A0
:100DA000680E2440780F120F2F801712131C801228
:100DB000121429800D1213F98008120EC880031234
:100DC000102FDAF8221E0353005400430020005570
:100DD000005300420020005300650072006900616A
:100DE000006C00040309041201000202000040BF6D
:100DF0003402FF0001010200010902430002010068
:100E000080320904000001020201000524001001E3
:100E1000052401000104240202052406000107053F
:100E200082034000FF09040100020A0000000705D8
:100E3000810240000007050102400000000001009F
:100E40000803530054004300CA7BCA6BCA5BCA4BF9
:100E5000CA3BCA2BCA1BCA0BC0D0C083C0827EF15A
:100E6000FC74061213917CEB74021213917CCB7408
:100E7000041213917CDB7CBE30E10312142D7CBE86
:100E800030E20312107C7CBC30E003120D3B7CBCD2
:100E900030E10312118D7CBC30E2031212377CBDAD
:100EA00030E10312093C7CBE30E00312142C7AF1CD
:100EB000FCD082D083D0D0DA0BDA1BDA2BDA3BDA23
:100EC0004BDA5BDA6BDA7B32CAF8740E6C7712138A
:100ED000A6741112139120E1537E370061BE3400D5
:100EE0004028057EF04080027CF77E0F00637C7F07
:100EF00074201212620A2F7E3700619D327A370009
:100F0000610A157E1F00632D317A1F00637E370052
:100F1000614D33780F74117E700A1213A6E47AB310
:100F20000060800874117E70021213A6DAF8227E27
:100F3000B3004EBEB00D50507EA003A4900F40737E
:100F4000020F67020F6A020F88020F6D020F8802FC
:100F50000F70020F73020F76020F79020F7C020FDF
:100F60007F020F82020F85020839020AC6020CA214
:100F70000210C6020B65021423020F8B020A210223
:100F8000114F02128B0214260213F97EB3004DB4E6
:100F900080227EB30050701C7EB3004F70167EB36B
:100FA000005270107EB30051700A7E370053BE3479
:100FB000000168030213F97EB3005FB4040A7E34B3
:100FC0000E3E7E2400FF80087E340E3C7E2400FF0F
:100FD0007A1F00637E3400017A3700610213CA432E
:100FE000BA8075E90053EAF875F528759400759391
:100FF0000075920075910075960075950075B200A8
:1010000075B10075B40075B30075CA0075C9007577
:10101000CC0075CB0075E20075E1007E3400011252
:10102000134F1200B07E34000112134FD2AF22745E
:101030000E6C771213A6741112139130E03D7E0FDF
:10104000006374201211C80A1B7E2700619D217A5B
:101050002700617E1F00632D317A1F00637E3700F9
:10106000614D33780E74117E70481213A6E47AB382
:1010700000602274117E70400213A622E46C771285
:1010800013A674027AB3005FE47AB30060C20274FC
:101090000E7E70011213A674117E70481213A6748E
:1010A0000E7E70021213A674117E70481213A6747D
:1010B0000E7E70011213A674147E70901213A67423
:1010C0000E6C770213A6CAF87EB3004D70237EB370
:1010D0000052701D7EB3005170177EB30050701126
:1010E0007EF3004FBEF08050087E3700534D3368CA
:1010F000051213F98017E47C7F1213A64CFF6804D5
:101100007403800274027AB3005F121407DAF822C3
:101110007584017E44041FE47A49B01B4478F97E4B
:10112000F800687E0400FF7E1414320B0A405D4410
:10113000681A692000020B0E0B44800A7E0BB07AFD
:1011400029B00B240B0C1B4478F280DF0213DB7EEA
:10115000B3005FB4041D7EB3004DB481167EB300AE
:101160005070107EB30052700A7E370053BE3400B8
:101170000168030213F97E340E3C7E2400FF7A1FBF
:1011800000637E3400017A3700610213CACAF87422
:101190000E7E70011213A674111213917CFB30E5C0
:1011A0000874117E70401213A67CBF30E2077411E0
:1011B0006C771213A67E37005D4D3368067E3700CC
:1011C0005D9934C202DAF822CA3B7F30CAB80BFDFF
:1011D00074161213917AFBB039BFFFFF800C29BF40
:1011E000FFFE1213917A3BB00B747EFBA07CBA1405
:1011F0007AFBB04CAA78E729BFFFFF9EF80003DA1C
:101200003B227A3700217E3400227E2400007E1BA0
:10121000307E3400237E2400007A1B307E3400218F
:101220007E2400007E1B307E3400247E2400007A61
:101230001B307E37002322CAF8740E7E7002121310
:10124000A674111213917CFB30E50874117E704076
:101250001213A67CBF30E20774116C771213A6DA62
:10126000F822CA3BCA787F30CAB8800B7EFBB07EBA
:101270003B700B741213A629AFFFFF7CBA1439BF61
:10128000FFFF4CAA78E61BFDDA3B227EB3005FB479
:10129000041B7EB3004DB401147EB30050700E7E6B
:1012A000B3005270087E3700534D3368030213F9C0
:1012B0000214077EB3005FB404097EB3004DBEB0D4
:1012C000A168030213F97E1800087A1F00637E37B5
:1012D00000537A3700610213CA7EB3005FB4040979
:1012E0007EB3004DBEB02168030213F97E180008DA
:1012F0007A1F00637E3700537A3700610213EB8058
:1013000012000000000000000000000000000000CB
:101310000000007D231B344D2278E6227EB3004E70
:1013200024DF680A14680A0BB178090212D9021284
:10133000B30213660213F9CA797D7380077E340302
:10134000E81212FF7D371B744D3378F1DA79227D74
:10135000237E341A0A7D131B147D3178F87D121B0D
:10136000147D2178EC227EB3005FB404097EB300C3
:101370004DBEB02168030213F90214077CA77C7BE1
:101380000A5A2E54002012126274117E7001021348
:10139000A67CABE5FC20E7FB7CBA4480F5FCE5FCD1
:1013A00020E7FBE5EC227CA77C7BE5FC20E7FB7CCF
:1013B000B7547FF5FC7AA1EC227E1400407E040035
:1013C000017E7300550A3702000374037AB300608C
:1013D00074117E70401213A6020EC81214149F00DE
:1013E0007E34145F7E2400FF0200CE74047AB300C2
:1013F0006074117E70400213A674057AB3006074A5
:10140000117E70600213A6E47AB3006074117E70DE
:10141000480213A6120FDF80FE7A0F0059227A3796
:101420000057220213F90213F90213F9222228307D
:1014300029000001005600000200570000000400CF
:101440005900FF14560002005D0000000040535494
:1014500043495350230040535443495350230030D1
:01146000008B
:00000001FF
