:10000000020276A9D7BA75E90075EA007591007504
:10001000920075B10075B2001200C7D2AF6D77C201
:10002000002000FD7E3402427A3700086D66E47ECF
:100030003700087A71827A6183F00B647E3700089A
:100040000B347A370008BE64004878E274327E349C
:100050000003AD372E3402437A71827A6183F07DDA
:10006000370B347D63BE34001840026D6674327EF7
:10007000340003AD362E3402427A71827A6183F005
:100080007D360B347D63BE34001840026D667432D9
:100090007E340003AD362E3402447A71827A618355
:1000A000F01201E37E3400007E2402421201797DC9
:1000B000370B347D73BE34001840026D777E3400F8
:1000C0003212025F020021CAF8E47E34FEB17E24BF
:1000D000007E7A1BB07E14FEC47E04007E7A0BB0D4
:1000E0007E14FEC57A0BB07E14FEC67A0BB07E1469
:1000F000FED07A0BB07E14FED17A0BB074187E1449
:10010000FEDE7A0BB0E47E14FED27A0BB074317E40
:1001100014FED37A0BB074607E14FEC87A0BB06CF8
:10012000FF7E54FED57E44007E7A2BF07E54FED6B0
:100130007A2BF05391FE4392017EF0057E54FECC63
:100140007A2BF06CFF7E54FECD7A2BF07E54FEB2FB
:100150007A2BF074687A0BB074807E14FEDD7A0B13
:10016000B074817E14FEC07A0BB074017E14FEC799
:100170007A0BB07A1BB0DAF8227D027D13740D7E03
:1001800034F9497E24007E7A1BB0E47E34F94A7A41
:100190001BB074017E34F9487A1BB074147E34F9B4
:1001A0004B7A1BB07E34F9887A1B207E34F9897A29
:1001B0001B307D101B147E34F9847A1B207E34F9A9
:1001C000857A1B30E47E34F9827A1BB074827E34E7
:1001D000F9807A1BB074C07E34F9817A1BB0D2B337
:1001E000D200226D33E47D232E2400007A51827ADE
:1001F0004183F00B34BE34024278EA7E2402426D21
:10020000337E1400017A51827A41837EEBA00B2465
:100210006C117CBA30E70474258002740C7D412E89
:100220004400007A91827A8183F03EA00B140B1077
:0D023000A5B908DE0B34BE34004840C922D9
:10024300020246CAB8CA1BC2B3C200E47E34F982B2
:100253007E24007E7A1BB0DA1BDAB8327D237E342B
:100263001A0A7D131B147D3178F87D121B147D212E
:1002730078EC227584017E44041FE47A49B01B4460
:0902830078F97EF8002002000366
:00000001FF
